{
  "contractName": "DEX",
  "abi": [
    {
      "inputs": [],
      "stateMutability": "nonpayable",
      "type": "constructor"
    },
    {
      "inputs": [],
      "name": "_owner",
      "outputs": [
        {
          "internalType": "address",
          "name": "",
          "type": "address"
        }
      ],
      "stateMutability": "view",
      "type": "function",
      "constant": true
    },
    {
      "inputs": [],
      "name": "token",
      "outputs": [
        {
          "internalType": "contract ERC20Basic",
          "name": "",
          "type": "address"
        }
      ],
      "stateMutability": "view",
      "type": "function",
      "constant": true
    },
    {
      "inputs": [],
      "name": "tokenPrice",
      "outputs": [
        {
          "internalType": "uint256",
          "name": "",
          "type": "uint256"
        }
      ],
      "stateMutability": "view",
      "type": "function",
      "constant": true
    },
    {
      "inputs": [],
      "name": "buy",
      "outputs": [],
      "stateMutability": "payable",
      "type": "function",
      "payable": true
    },
    {
      "inputs": [
        {
          "internalType": "uint256",
          "name": "numberOfTokens",
          "type": "uint256"
        }
      ],
      "name": "sell",
      "outputs": [],
      "stateMutability": "nonpayable",
      "type": "function"
    },
    {
      "inputs": [],
      "name": "getTokenAddress",
      "outputs": [
        {
          "internalType": "address",
          "name": "",
          "type": "address"
        }
      ],
      "stateMutability": "view",
      "type": "function",
      "constant": true
    },
    {
      "inputs": [],
      "name": "getTokenPrice",
      "outputs": [
        {
          "internalType": "uint256",
          "name": "",
          "type": "uint256"
        }
      ],
      "stateMutability": "view",
      "type": "function",
      "constant": true
    }
  ],
  "bytecode": "0x6080604052670de0b6b3a764000060025534801561001c57600080fd5b50336000806101000a81548173ffffffffffffffffffffffffffffffffffffffff021916908373ffffffffffffffffffffffffffffffffffffffff160217905550604051610069906100cb565b604051809103906000f080158015610085573d6000803e3d6000fd5b50600160006101000a81548173ffffffffffffffffffffffffffffffffffffffff021916908373ffffffffffffffffffffffffffffffffffffffff1602179055506100d8565b6115f480610e3883390190565b610d51806100e76000396000f3fe6080604052600436106100705760003560e01c8063a6f2ae3a1161004e578063a6f2ae3a146100f6578063b2bdfa7b14610100578063e4849b321461012b578063fc0c546a1461015457610070565b806310fe9ae8146100755780634b94f50e146100a05780637ff9b596146100cb575b600080fd5b34801561008157600080fd5b5061008a61017f565b60405161009791906108cc565b60405180910390f35b3480156100ac57600080fd5b506100b56101a9565b6040516100c29190610a2d565b60405180910390f35b3480156100d757600080fd5b506100e06101b3565b6040516100ed9190610a2d565b60405180910390f35b6100fe6101b9565b005b34801561010c57600080fd5b506101156102c0565b60405161012291906108cc565b60405180910390f35b34801561013757600080fd5b50610152600480360381019061014d9190610788565b6102e4565b005b34801561016057600080fd5b506101696105d2565b6040516101769190610970565b60405180910390f35b6000600160009054906101000a900473ffffffffffffffffffffffffffffffffffffffff16905090565b6000600254905090565b60025481565b600034905060006101e8600254670de0b6b3a7640000846101da9190610a95565b6105f890919063ffffffff16565b90506000821161022d576040517f08c379a0000000000000000000000000000000000000000000000000000000008152600401610224906109ad565b60405180910390fd5b600160009054906101000a900473ffffffffffffffffffffffffffffffffffffffff1673ffffffffffffffffffffffffffffffffffffffff166340c10f1933836040518363ffffffff1660e01b815260040161028a929190610947565b600060405180830381600087803b1580156102a457600080fd5b505af11580156102b8573d6000803e3d6000fd5b505050505050565b60008054906101000a900473ffffffffffffffffffffffffffffffffffffffff1681565b60008111610327576040517f08c379a000000000000000000000000000000000000000000000000000000000815260040161031e906109cd565b60405180910390fd5b6000600160009054906101000a900473ffffffffffffffffffffffffffffffffffffffff1673ffffffffffffffffffffffffffffffffffffffff1663dd62ed3e33306040518363ffffffff1660e01b81526004016103869291906108e7565b60206040518083038186803b15801561039e57600080fd5b505afa1580156103b2573d6000803e3d6000fd5b505050506040513d601f19601f820116820180604052508101906103d691906107b1565b90508181101561041b576040517f08c379a0000000000000000000000000000000000000000000000000000000008152600401610412906109ed565b60405180910390fd5b600160009054906101000a900473ffffffffffffffffffffffffffffffffffffffff1673ffffffffffffffffffffffffffffffffffffffff166323b872dd3330856040518463ffffffff1660e01b815260040161047a93929190610910565b602060405180830381600087803b15801561049457600080fd5b505af11580156104a8573d6000803e3d6000fd5b505050506040513d601f19601f820116820180604052508101906104cc919061075f565b5060006104f7670de0b6b3a7640000846104e69190610a64565b60025461064290919063ffffffff16565b90503373ffffffffffffffffffffffffffffffffffffffff166108fc829081150290604051600060405180830381858888f1935050505015801561053f573d6000803e3d6000fd5b50600160009054906101000a900473ffffffffffffffffffffffffffffffffffffffff1673ffffffffffffffffffffffffffffffffffffffff166342966c68846040518263ffffffff1660e01b815260040161059b9190610a2d565b600060405180830381600087803b1580156105b557600080fd5b505af11580156105c9573d6000803e3d6000fd5b50505050505050565b600160009054906101000a900473ffffffffffffffffffffffffffffffffffffffff1681565b600061063a83836040518060400160405280601a81526020017f536166654d6174683a206469766973696f6e206279207a65726f0000000000008152506106bd565b905092915050565b60008083141561065557600090506106b7565b600082846106639190610a95565b90508284826106729190610a64565b146106b2576040517f08c379a00000000000000000000000000000000000000000000000000000000081526004016106a990610a0d565b60405180910390fd5b809150505b92915050565b60008083118290610704576040517f08c379a00000000000000000000000000000000000000000000000000000000081526004016106fb919061098b565b60405180910390fd5b50600083856107139190610a64565b9050809150509392505050565b60008151905061072f81610ced565b92915050565b60008135905061074481610d04565b92915050565b60008151905061075981610d04565b92915050565b60006020828403121561077157600080fd5b600061077f84828501610720565b91505092915050565b60006020828403121561079a57600080fd5b60006107a884828501610735565b91505092915050565b6000602082840312156107c357600080fd5b60006107d18482850161074a565b91505092915050565b6107e381610aef565b82525050565b6107f281610b37565b82525050565b600061080382610a48565b61080d8185610a53565b935061081d818560208601610b5b565b61082681610bec565b840191505092915050565b600061083e601b83610a53565b915061084982610bfd565b602082019050919050565b6000610861602583610a53565b915061086c82610c26565b604082019050919050565b6000610884601983610a53565b915061088f82610c75565b602082019050919050565b60006108a7602183610a53565b91506108b282610c9e565b604082019050919050565b6108c681610b2d565b82525050565b60006020820190506108e160008301846107da565b92915050565b60006040820190506108fc60008301856107da565b61090960208301846107da565b9392505050565b600060608201905061092560008301866107da565b61093260208301856107da565b61093f60408301846108bd565b949350505050565b600060408201905061095c60008301856107da565b61096960208301846108bd565b9392505050565b600060208201905061098560008301846107e9565b92915050565b600060208201905081810360008301526109a581846107f8565b905092915050565b600060208201905081810360008301526109c681610831565b9050919050565b600060208201905081810360008301526109e681610854565b9050919050565b60006020820190508181036000830152610a0681610877565b9050919050565b60006020820190508181036000830152610a268161089a565b9050919050565b6000602082019050610a4260008301846108bd565b92915050565b600081519050919050565b600082825260208201905092915050565b6000610a6f82610b2d565b9150610a7a83610b2d565b925082610a8a57610a89610bbd565b5b828204905092915050565b6000610aa082610b2d565b9150610aab83610b2d565b9250817fffffffffffffffffffffffffffffffffffffffffffffffffffffffffffffffff0483118215151615610ae457610ae3610b8e565b5b828202905092915050565b6000610afa82610b0d565b9050919050565b60008115159050919050565b600073ffffffffffffffffffffffffffffffffffffffff82169050919050565b6000819050919050565b6000610b4282610b49565b9050919050565b6000610b5482610b0d565b9050919050565b60005b83811015610b79578082015181840152602081019050610b5e565b83811115610b88576000848401525b50505050565b7f4e487b7100000000000000000000000000000000000000000000000000000000600052601160045260246000fd5b7f4e487b7100000000000000000000000000000000000000000000000000000000600052601260045260246000fd5b6000601f19601f8301169050919050565b7f596f75206e65656420746f2073656e6420736f6d652045746865720000000000600082015250565b7f596f75206e65656420746f2073656c6c206174206c6561737420736f6d65207460008201527f6f6b656e73000000000000000000000000000000000000000000000000000000602082015250565b7f436865636b2074686520746f6b656e20616c6c6f77616e636500000000000000600082015250565b7f536166654d6174683a206d756c7469706c69636174696f6e206f766572666c6f60008201527f7700000000000000000000000000000000000000000000000000000000000000602082015250565b610cf681610b01565b8114610d0157600080fd5b50565b610d0d81610b2d565b8114610d1857600080fd5b5056fea26469706673582212206870639c98bfd1da5c21a28a2e9d8b12563b10227d0bbfc52ce98e68b5a49dfe64736f6c634300080100336080604052600060035534801561001557600080fd5b50336000806101000a81548173ffffffffffffffffffffffffffffffffffffffff021916908373ffffffffffffffffffffffffffffffffffffffff16021790555061158f806100656000396000f3fe608060405234801561001057600080fd5b50600436106100b45760003560e01c806340c10f191161007157806340c10f191461019157806342966c68146101ad57806370a08231146101c957806395d89b41146101f9578063a9059cbb14610217578063dd62ed3e14610247576100b4565b806306fdde03146100b9578063095ea7b3146100d757806318160ddd1461010757806323b872dd14610125578063313ce567146101555780633eaaf86b14610173575b600080fd5b6100c1610277565b6040516100ce91906111ac565b60405180910390f35b6100f160048036038101906100ec9190611017565b6102b0565b6040516100fe9190611191565b60405180910390f35b61010f6103a2565b60405161011c919061126e565b60405180910390f35b61013f600480360381019061013a9190610fc8565b6103ac565b60405161014c9190611191565b60405180910390f35b61015d61072c565b60405161016a9190611289565b60405180910390f35b61017b610731565b604051610188919061126e565b60405180910390f35b6101ab60048036038101906101a69190611017565b610737565b005b6101c760048036038101906101c29190611053565b6107d3565b005b6101e360048036038101906101de9190610f63565b6107e0565b6040516101f0919061126e565b60405180910390f35b610201610829565b60405161020e91906111ac565b60405180910390f35b610231600480360381019061022c9190611017565b610862565b60405161023e9190611191565b60405180910390f35b610261600480360381019061025c9190610f8c565b610a49565b60405161026e919061126e565b60405180910390f35b6040518060400160405280600e81526020017f45524332305f457874656e64656400000000000000000000000000000000000081525081565b600081600260003373ffffffffffffffffffffffffffffffffffffffff1673ffffffffffffffffffffffffffffffffffffffff16815260200190815260200160002060008573ffffffffffffffffffffffffffffffffffffffff1673ffffffffffffffffffffffffffffffffffffffff168152602001908152602001600020819055508273ffffffffffffffffffffffffffffffffffffffff163373ffffffffffffffffffffffffffffffffffffffff167f8c5be1e5ebec7d5bd14f71427d1e84f3dd0314c0f7b2291e5b200ac8c7c3b92584604051610390919061126e565b60405180910390a36001905092915050565b6000600354905090565b6000600160008573ffffffffffffffffffffffffffffffffffffffff1673ffffffffffffffffffffffffffffffffffffffff168152602001908152602001600020548211156103fa57600080fd5b600260008573ffffffffffffffffffffffffffffffffffffffff1673ffffffffffffffffffffffffffffffffffffffff16815260200190815260200160002060003373ffffffffffffffffffffffffffffffffffffffff1673ffffffffffffffffffffffffffffffffffffffff1681526020019081526020016000205482111561048357600080fd5b6104d582600160008773ffffffffffffffffffffffffffffffffffffffff1673ffffffffffffffffffffffffffffffffffffffff16815260200190815260200160002054610ad090919063ffffffff16565b600160008673ffffffffffffffffffffffffffffffffffffffff1673ffffffffffffffffffffffffffffffffffffffff168152602001908152602001600020819055506105a782600260008773ffffffffffffffffffffffffffffffffffffffff1673ffffffffffffffffffffffffffffffffffffffff16815260200190815260200160002060003373ffffffffffffffffffffffffffffffffffffffff1673ffffffffffffffffffffffffffffffffffffffff16815260200190815260200160002054610ad090919063ffffffff16565b600260008673ffffffffffffffffffffffffffffffffffffffff1673ffffffffffffffffffffffffffffffffffffffff16815260200190815260200160002060003373ffffffffffffffffffffffffffffffffffffffff1673ffffffffffffffffffffffffffffffffffffffff1681526020019081526020016000208190555061067982600160008673ffffffffffffffffffffffffffffffffffffffff1673ffffffffffffffffffffffffffffffffffffffff16815260200190815260200160002054610b1a90919063ffffffff16565b600160008573ffffffffffffffffffffffffffffffffffffffff1673ffffffffffffffffffffffffffffffffffffffff168152602001908152602001600020819055508273ffffffffffffffffffffffffffffffffffffffff168473ffffffffffffffffffffffffffffffffffffffff167fddf252ad1be2c89b69c2b068fc378daa952ba7f163c4a11628f55a4df523b3ef84604051610719919061126e565b60405180910390a3600190509392505050565b601281565b60035481565b3373ffffffffffffffffffffffffffffffffffffffff1660008054906101000a900473ffffffffffffffffffffffffffffffffffffffff1673ffffffffffffffffffffffffffffffffffffffff16146107c5576040517f08c379a00000000000000000000000000000000000000000000000000000000081526004016107bc906111ee565b60405180910390fd5b6107cf8282610b78565b5050565b6107dd3382610d02565b50565b6000600160008373ffffffffffffffffffffffffffffffffffffffff1673ffffffffffffffffffffffffffffffffffffffff168152602001908152602001600020549050919050565b6040518060400160405280600381526020017f544b4e000000000000000000000000000000000000000000000000000000000081525081565b6000600160003373ffffffffffffffffffffffffffffffffffffffff1673ffffffffffffffffffffffffffffffffffffffff168152602001908152602001600020548211156108b057600080fd5b61090282600160003373ffffffffffffffffffffffffffffffffffffffff1673ffffffffffffffffffffffffffffffffffffffff16815260200190815260200160002054610ad090919063ffffffff16565b600160003373ffffffffffffffffffffffffffffffffffffffff1673ffffffffffffffffffffffffffffffffffffffff1681526020019081526020016000208190555061099782600160008673ffffffffffffffffffffffffffffffffffffffff1673ffffffffffffffffffffffffffffffffffffffff16815260200190815260200160002054610b1a90919063ffffffff16565b600160008573ffffffffffffffffffffffffffffffffffffffff1673ffffffffffffffffffffffffffffffffffffffff168152602001908152602001600020819055508273ffffffffffffffffffffffffffffffffffffffff163373ffffffffffffffffffffffffffffffffffffffff167fddf252ad1be2c89b69c2b068fc378daa952ba7f163c4a11628f55a4df523b3ef84604051610a37919061126e565b60405180910390a36001905092915050565b6000600260008473ffffffffffffffffffffffffffffffffffffffff1673ffffffffffffffffffffffffffffffffffffffff16815260200190815260200160002060008373ffffffffffffffffffffffffffffffffffffffff1673ffffffffffffffffffffffffffffffffffffffff16815260200190815260200160002054905092915050565b6000610b1283836040518060400160405280601e81526020017f536166654d6174683a207375627472616374696f6e206f766572666c6f770000815250610ed5565b905092915050565b6000808284610b2991906112c0565b905083811015610b6e576040517f08c379a0000000000000000000000000000000000000000000000000000000008152600401610b659061120e565b60405180910390fd5b8091505092915050565b600073ffffffffffffffffffffffffffffffffffffffff168273ffffffffffffffffffffffffffffffffffffffff161415610be8576040517f08c379a0000000000000000000000000000000000000000000000000000000008152600401610bdf9061124e565b60405180910390fd5b610bfd81600354610b1a90919063ffffffff16565b600381905550610c5581600160008573ffffffffffffffffffffffffffffffffffffffff1673ffffffffffffffffffffffffffffffffffffffff16815260200190815260200160002054610b1a90919063ffffffff16565b600160008473ffffffffffffffffffffffffffffffffffffffff1673ffffffffffffffffffffffffffffffffffffffff168152602001908152602001600020819055508173ffffffffffffffffffffffffffffffffffffffff16600073ffffffffffffffffffffffffffffffffffffffff167fddf252ad1be2c89b69c2b068fc378daa952ba7f163c4a11628f55a4df523b3ef83604051610cf6919061126e565b60405180910390a35050565b600073ffffffffffffffffffffffffffffffffffffffff168273ffffffffffffffffffffffffffffffffffffffff161415610d72576040517f08c379a0000000000000000000000000000000000000000000000000000000008152600401610d699061122e565b60405180910390fd5b6000600160008473ffffffffffffffffffffffffffffffffffffffff1673ffffffffffffffffffffffffffffffffffffffff16815260200190815260200160002054905081811015610df9576040517f08c379a0000000000000000000000000000000000000000000000000000000008152600401610df0906111ce565b60405180910390fd5b610e0c8282610ad090919063ffffffff16565b600160008573ffffffffffffffffffffffffffffffffffffffff1673ffffffffffffffffffffffffffffffffffffffff16815260200190815260200160002081905550610e6482600354610ad090919063ffffffff16565b600381905550600073ffffffffffffffffffffffffffffffffffffffff168373ffffffffffffffffffffffffffffffffffffffff167fddf252ad1be2c89b69c2b068fc378daa952ba7f163c4a11628f55a4df523b3ef84604051610ec8919061126e565b60405180910390a3505050565b6000838311158290610f1d576040517f08c379a0000000000000000000000000000000000000000000000000000000008152600401610f1491906111ac565b60405180910390fd5b5060008385610f2c9190611316565b9050809150509392505050565b600081359050610f488161152b565b92915050565b600081359050610f5d81611542565b92915050565b600060208284031215610f7557600080fd5b6000610f8384828501610f39565b91505092915050565b60008060408385031215610f9f57600080fd5b6000610fad85828601610f39565b9250506020610fbe85828601610f39565b9150509250929050565b600080600060608486031215610fdd57600080fd5b6000610feb86828701610f39565b9350506020610ffc86828701610f39565b925050604061100d86828701610f4e565b9150509250925092565b6000806040838503121561102a57600080fd5b600061103885828601610f39565b925050602061104985828601610f4e565b9150509250929050565b60006020828403121561106557600080fd5b600061107384828501610f4e565b91505092915050565b6110858161135c565b82525050565b6000611096826112a4565b6110a081856112af565b93506110b081856020860161139f565b6110b981611401565b840191505092915050565b60006110d16022836112af565b91506110dc82611412565b604082019050919050565b60006110f46017836112af565b91506110ff82611461565b602082019050919050565b6000611117601b836112af565b91506111228261148a565b602082019050919050565b600061113a6021836112af565b9150611145826114b3565b604082019050919050565b600061115d601f836112af565b915061116882611502565b602082019050919050565b61117c81611388565b82525050565b61118b81611392565b82525050565b60006020820190506111a6600083018461107c565b92915050565b600060208201905081810360008301526111c6818461108b565b905092915050565b600060208201905081810360008301526111e7816110c4565b9050919050565b60006020820190508181036000830152611207816110e7565b9050919050565b600060208201905081810360008301526112278161110a565b9050919050565b600060208201905081810360008301526112478161112d565b9050919050565b6000602082019050818103600083015261126781611150565b9050919050565b60006020820190506112836000830184611173565b92915050565b600060208201905061129e6000830184611182565b92915050565b600081519050919050565b600082825260208201905092915050565b60006112cb82611388565b91506112d683611388565b9250827fffffffffffffffffffffffffffffffffffffffffffffffffffffffffffffffff0382111561130b5761130a6113d2565b5b828201905092915050565b600061132182611388565b915061132c83611388565b92508282101561133f5761133e6113d2565b5b828203905092915050565b600061135582611368565b9050919050565b60008115159050919050565b600073ffffffffffffffffffffffffffffffffffffffff82169050919050565b6000819050919050565b600060ff82169050919050565b60005b838110156113bd5780820151818401526020810190506113a2565b838111156113cc576000848401525b50505050565b7f4e487b7100000000000000000000000000000000000000000000000000000000600052601160045260246000fd5b6000601f19601f8301169050919050565b7f45524332303a206275726e20616d6f756e7420657863656564732062616c616e60008201527f6365000000000000000000000000000000000000000000000000000000000000602082015250565b7f43616c6c6572206973206e6f7420746865206f776e6572000000000000000000600082015250565b7f536166654d6174683a206164646974696f6e206f766572666c6f770000000000600082015250565b7f45524332303a206275726e2066726f6d20746865207a65726f2061646472657360008201527f7300000000000000000000000000000000000000000000000000000000000000602082015250565b7f45524332303a206d696e7420746f20746865207a65726f206164647265737300600082015250565b6115348161134a565b811461153f57600080fd5b50565b61154b81611388565b811461155657600080fd5b5056fea264697066735822122087d44cd79a26644528273c7085de102915d176acebd955b112af6a0c397ae01364736f6c63430008010033",
  "immutableReferences": {},
  "source": "// SPDX-License-Identifier: MIT\n\npragma solidity ^0.8.0;\nimport \"./IERC20.sol\";\nimport \"./ERC20Basic.sol\";\n\n    \ncontract DEX {\n    using SafeMath for uint256;\n\n    address public _owner;\n    ERC20Basic public token;\n    uint256 public tokenPrice = 1 ether;\n\n    constructor () {\n        _owner = msg.sender;\n        token = new ERC20Basic();\n    }\n    \n    /**\n     * buy funtion does accept an amount in ETH\n     * and it mints the number of TKNs to the msg.sender\n     * according to the set price of TKNs'\n     **/\n    \n    function buy() payable public {\n        uint256 amountTobuy = msg.value; \n        \n        // assumption: token always has fixed 18 decimals\n\t\tuint256 tokensToBuy = (amountTobuy * (10 ** 18)).div(tokenPrice);\n\n        require(amountTobuy > 0, \"You need to send some Ether\");\n    \n        token.mint(msg.sender, tokensToBuy);\n    }\n    \n    /**\n     * sell funtion does accept an amount of TKNs\n     * and then transfers ETH to the msg.sender\n     * according to the set price of TKNs' .\n     * After the successful trade it burns the TKNs\n     **/\n    \n    function sell(uint256 numberOfTokens) public {\n        require(numberOfTokens > 0, \"You need to sell at least some tokens\");\n        uint256 allowance = token.allowance(msg.sender, address(this));\n        require(allowance >= numberOfTokens, \"Check the token allowance\");\n        \n        token.transferFrom(msg.sender, address(this), numberOfTokens);\n\n        // assumption: token always has fixed 18 decimals\n        uint256 totalAmount = tokenPrice.mul(numberOfTokens / (10 ** 18));\n        \n        // In case of failure it reverts the state of the txn\n        payable(msg.sender).transfer(totalAmount); \n\n        token.burn(numberOfTokens);\n    }\n\n    function getTokenAddress() public view returns (address) {\n        return address(token);\n    }\n    \n    function getTokenPrice() public view returns (uint256) {\n        return tokenPrice;\n    }\n\n}\n",
  "sourcePath": "/home/saeed/Desktop/ERC_20_DEX/contracts/DEX.sol",
  "compiler": {
    "name": "solc",
    "version": "0.8.1+commit.df193b15.Emscripten.clang"
  },
  "schemaVersion": "3.3.4",
  "updatedAt": "2021-05-06T20:45:22.124Z",
  "networkType": "ethereum",
  "devdoc": {
    "kind": "dev",
    "methods": {},
    "version": 1
  },
  "userdoc": {
    "kind": "user",
    "methods": {
      "buy()": {
        "notice": "buy funtion does accept an amount in ETH and it mints the number of TKNs to the msg.sender according to the set price of TKNs'*"
      },
      "sell(uint256)": {
        "notice": "sell funtion does accept an amount of TKNs and then transfers ETH to the msg.sender according to the set price of TKNs' . After the successful trade it burns the TKNs*"
      }
    },
    "version": 1
  }
}