{
  "contractName": "DEX",
  "abi": [
    {
      "inputs": [],
      "stateMutability": "nonpayable",
      "type": "constructor"
    },
    {
      "anonymous": false,
      "inputs": [
        {
          "indexed": false,
          "internalType": "uint256",
          "name": "amount",
          "type": "uint256"
        },
        {
          "indexed": false,
          "internalType": "bool",
          "name": "bought",
          "type": "bool"
        },
        {
          "indexed": false,
          "internalType": "address",
          "name": "_id",
          "type": "address"
        }
      ],
      "name": "Transfer",
      "type": "event"
    },
    {
      "inputs": [],
      "name": "_owner",
      "outputs": [
        {
          "internalType": "address",
          "name": "",
          "type": "address"
        }
      ],
      "stateMutability": "view",
      "type": "function",
      "constant": true
    },
    {
      "inputs": [],
      "name": "token",
      "outputs": [
        {
          "internalType": "contract IERC20",
          "name": "",
          "type": "address"
        }
      ],
      "stateMutability": "view",
      "type": "function",
      "constant": true
    },
    {
      "inputs": [],
      "name": "buy",
      "outputs": [],
      "stateMutability": "payable",
      "type": "function",
      "payable": true
    },
    {
      "inputs": [
        {
          "internalType": "uint256",
          "name": "amount",
          "type": "uint256"
        }
      ],
      "name": "sell",
      "outputs": [],
      "stateMutability": "nonpayable",
      "type": "function"
    }
  ],
  "bytecode": "0x608060405234801561001057600080fd5b50336000806101000a81548173ffffffffffffffffffffffffffffffffffffffff021916908373ffffffffffffffffffffffffffffffffffffffff16021790555060405161005d906100bf565b604051809103906000f080158015610079573d6000803e3d6000fd5b50600160006101000a81548173ffffffffffffffffffffffffffffffffffffffff021916908373ffffffffffffffffffffffffffffffffffffffff1602179055506100cc565b61151b80610a5783390190565b61097c806100db6000396000f3fe60806040526004361061003f5760003560e01c8063a6f2ae3a14610044578063b2bdfa7b1461004e578063e4849b3214610079578063fc0c546a146100a2575b600080fd5b61004c6100cd565b005b34801561005a57600080fd5b506100636101e3565b6040516100709190610689565b60405180910390f35b34801561008557600080fd5b506100a0600480360381019061009b9190610592565b610207565b005b3480156100ae57600080fd5b506100b7610504565b6040516100c4919061072d565b60405180910390f35b600034905060008111610115576040517f08c379a000000000000000000000000000000000000000000000000000000000815260040161010c90610748565b60405180910390fd5b600160009054906101000a900473ffffffffffffffffffffffffffffffffffffffff1673ffffffffffffffffffffffffffffffffffffffff166340c10f1933836040518363ffffffff1660e01b8152600401610172929190610704565b600060405180830381600087803b15801561018c57600080fd5b505af11580156101a0573d6000803e3d6000fd5b505050507f391a038eb5deba284eceec611669825ce005642d8ca3d956f851bacf9edefca3816001336040516101d8939291906107c3565b60405180910390a150565b60008054906101000a900473ffffffffffffffffffffffffffffffffffffffff1681565b6000811161024a576040517f08c379a000000000000000000000000000000000000000000000000000000000815260040161024190610768565b60405180910390fd5b6000600160009054906101000a900473ffffffffffffffffffffffffffffffffffffffff1673ffffffffffffffffffffffffffffffffffffffff1663dd62ed3e33306040518363ffffffff1660e01b81526004016102a99291906106a4565b60206040518083038186803b1580156102c157600080fd5b505afa1580156102d5573d6000803e3d6000fd5b505050506040513d601f19601f820116820180604052508101906102f991906105bb565b90508181101561033e576040517f08c379a000000000000000000000000000000000000000000000000000000000815260040161033590610788565b60405180910390fd5b600160009054906101000a900473ffffffffffffffffffffffffffffffffffffffff1673ffffffffffffffffffffffffffffffffffffffff166323b872dd3330856040518463ffffffff1660e01b815260040161039d939291906106cd565b602060405180830381600087803b1580156103b757600080fd5b505af11580156103cb573d6000803e3d6000fd5b505050506040513d601f19601f820116820180604052508101906103ef9190610569565b503373ffffffffffffffffffffffffffffffffffffffff166108fc839081150290604051600060405180830381858888f19350505050158015610436573d6000803e3d6000fd5b50600160009054906101000a900473ffffffffffffffffffffffffffffffffffffffff1673ffffffffffffffffffffffffffffffffffffffff166342966c68836040518263ffffffff1660e01b815260040161049291906107a8565b600060405180830381600087803b1580156104ac57600080fd5b505af11580156104c0573d6000803e3d6000fd5b505050507f391a038eb5deba284eceec611669825ce005642d8ca3d956f851bacf9edefca3826000336040516104f8939291906107c3565b60405180910390a15050565b600160009054906101000a900473ffffffffffffffffffffffffffffffffffffffff1681565b60008151905061053981610918565b92915050565b60008135905061054e8161092f565b92915050565b6000815190506105638161092f565b92915050565b60006020828403121561057b57600080fd5b60006105898482850161052a565b91505092915050565b6000602082840312156105a457600080fd5b60006105b28482850161053f565b91505092915050565b6000602082840312156105cd57600080fd5b60006105db84828501610554565b91505092915050565b6105ed8161080b565b82525050565b6105fc8161081d565b82525050565b61060b81610853565b82525050565b600061061e601b836107fa565b915061062982610877565b602082019050919050565b60006106416025836107fa565b915061064c826108a0565b604082019050919050565b60006106646019836107fa565b915061066f826108ef565b602082019050919050565b61068381610849565b82525050565b600060208201905061069e60008301846105e4565b92915050565b60006040820190506106b960008301856105e4565b6106c660208301846105e4565b9392505050565b60006060820190506106e260008301866105e4565b6106ef60208301856105e4565b6106fc604083018461067a565b949350505050565b600060408201905061071960008301856105e4565b610726602083018461067a565b9392505050565b60006020820190506107426000830184610602565b92915050565b6000602082019050818103600083015261076181610611565b9050919050565b6000602082019050818103600083015261078181610634565b9050919050565b600060208201905081810360008301526107a181610657565b9050919050565b60006020820190506107bd600083018461067a565b92915050565b60006060820190506107d8600083018661067a565b6107e560208301856105f3565b6107f260408301846105e4565b949350505050565b600082825260208201905092915050565b600061081682610829565b9050919050565b60008115159050919050565b600073ffffffffffffffffffffffffffffffffffffffff82169050919050565b6000819050919050565b600061085e82610865565b9050919050565b600061087082610829565b9050919050565b7f596f75206e65656420746f2073656e6420736f6d652045746865720000000000600082015250565b7f596f75206e65656420746f2073656c6c206174206c6561737420736f6d65207460008201527f6f6b656e73000000000000000000000000000000000000000000000000000000602082015250565b7f436865636b2074686520746f6b656e20616c6c6f77616e636500000000000000600082015250565b6109218161081d565b811461092c57600080fd5b50565b61093881610849565b811461094357600080fd5b5056fea26469706673582212200a61a2bf6faf3fac72f54a955e0917c82bef7e60b5b11030c1b435b218b1baa264736f6c634300080100336080604052600060035534801561001557600080fd5b50336000806101000a81548173ffffffffffffffffffffffffffffffffffffffff021916908373ffffffffffffffffffffffffffffffffffffffff1602179055506114b6806100656000396000f3fe608060405234801561001057600080fd5b50600436106100b45760003560e01c806340c10f191161007157806340c10f191461019157806342966c68146101ad57806370a08231146101c957806395d89b41146101f9578063a9059cbb14610217578063dd62ed3e14610247576100b4565b806306fdde03146100b9578063095ea7b3146100d757806318160ddd1461010757806323b872dd14610125578063313ce567146101555780633eaaf86b14610173575b600080fd5b6100c1610277565b6040516100ce919061111c565b60405180910390f35b6100f160048036038101906100ec9190610faa565b6102b0565b6040516100fe9190611101565b60405180910390f35b61010f6103a2565b60405161011c91906111be565b60405180910390f35b61013f600480360381019061013a9190610f5b565b6103ac565b60405161014c9190611101565b60405180910390f35b61015d61072c565b60405161016a91906111d9565b60405180910390f35b61017b610731565b60405161018891906111be565b60405180910390f35b6101ab60048036038101906101a69190610faa565b610737565b005b6101c760048036038101906101c29190610fe6565b6107d3565b005b6101e360048036038101906101de9190610ef6565b6107e0565b6040516101f091906111be565b60405180910390f35b610201610829565b60405161020e919061111c565b60405180910390f35b610231600480360381019061022c9190610faa565b610862565b60405161023e9190611101565b60405180910390f35b610261600480360381019061025c9190610f1f565b610a49565b60405161026e91906111be565b60405180910390f35b6040518060400160405280600e81526020017f45524332305f457874656e64656400000000000000000000000000000000000081525081565b600081600260003373ffffffffffffffffffffffffffffffffffffffff1673ffffffffffffffffffffffffffffffffffffffff16815260200190815260200160002060008573ffffffffffffffffffffffffffffffffffffffff1673ffffffffffffffffffffffffffffffffffffffff168152602001908152602001600020819055508273ffffffffffffffffffffffffffffffffffffffff163373ffffffffffffffffffffffffffffffffffffffff167f8c5be1e5ebec7d5bd14f71427d1e84f3dd0314c0f7b2291e5b200ac8c7c3b9258460405161039091906111be565b60405180910390a36001905092915050565b6000600354905090565b6000600160008573ffffffffffffffffffffffffffffffffffffffff1673ffffffffffffffffffffffffffffffffffffffff168152602001908152602001600020548211156103fa57600080fd5b600260008573ffffffffffffffffffffffffffffffffffffffff1673ffffffffffffffffffffffffffffffffffffffff16815260200190815260200160002060003373ffffffffffffffffffffffffffffffffffffffff1673ffffffffffffffffffffffffffffffffffffffff1681526020019081526020016000205482111561048357600080fd5b6104d582600160008773ffffffffffffffffffffffffffffffffffffffff1673ffffffffffffffffffffffffffffffffffffffff16815260200190815260200160002054610ad090919063ffffffff16565b600160008673ffffffffffffffffffffffffffffffffffffffff1673ffffffffffffffffffffffffffffffffffffffff168152602001908152602001600020819055506105a782600260008773ffffffffffffffffffffffffffffffffffffffff1673ffffffffffffffffffffffffffffffffffffffff16815260200190815260200160002060003373ffffffffffffffffffffffffffffffffffffffff1673ffffffffffffffffffffffffffffffffffffffff16815260200190815260200160002054610ad090919063ffffffff16565b600260008673ffffffffffffffffffffffffffffffffffffffff1673ffffffffffffffffffffffffffffffffffffffff16815260200190815260200160002060003373ffffffffffffffffffffffffffffffffffffffff1673ffffffffffffffffffffffffffffffffffffffff1681526020019081526020016000208190555061067982600160008673ffffffffffffffffffffffffffffffffffffffff1673ffffffffffffffffffffffffffffffffffffffff16815260200190815260200160002054610b1d90919063ffffffff16565b600160008573ffffffffffffffffffffffffffffffffffffffff1673ffffffffffffffffffffffffffffffffffffffff168152602001908152602001600020819055508273ffffffffffffffffffffffffffffffffffffffff168473ffffffffffffffffffffffffffffffffffffffff167fddf252ad1be2c89b69c2b068fc378daa952ba7f163c4a11628f55a4df523b3ef8460405161071991906111be565b60405180910390a3600190509392505050565b601281565b60035481565b3373ffffffffffffffffffffffffffffffffffffffff1660008054906101000a900473ffffffffffffffffffffffffffffffffffffffff1673ffffffffffffffffffffffffffffffffffffffff16146107c5576040517f08c379a00000000000000000000000000000000000000000000000000000000081526004016107bc9061115e565b60405180910390fd5b6107cf8282610b6f565b5050565b6107dd3382610cf9565b50565b6000600160008373ffffffffffffffffffffffffffffffffffffffff1673ffffffffffffffffffffffffffffffffffffffff168152602001908152602001600020549050919050565b6040518060400160405280600381526020017f544b4e000000000000000000000000000000000000000000000000000000000081525081565b6000600160003373ffffffffffffffffffffffffffffffffffffffff1673ffffffffffffffffffffffffffffffffffffffff168152602001908152602001600020548211156108b057600080fd5b61090282600160003373ffffffffffffffffffffffffffffffffffffffff1673ffffffffffffffffffffffffffffffffffffffff16815260200190815260200160002054610ad090919063ffffffff16565b600160003373ffffffffffffffffffffffffffffffffffffffff1673ffffffffffffffffffffffffffffffffffffffff1681526020019081526020016000208190555061099782600160008673ffffffffffffffffffffffffffffffffffffffff1673ffffffffffffffffffffffffffffffffffffffff16815260200190815260200160002054610b1d90919063ffffffff16565b600160008573ffffffffffffffffffffffffffffffffffffffff1673ffffffffffffffffffffffffffffffffffffffff168152602001908152602001600020819055508273ffffffffffffffffffffffffffffffffffffffff163373ffffffffffffffffffffffffffffffffffffffff167fddf252ad1be2c89b69c2b068fc378daa952ba7f163c4a11628f55a4df523b3ef84604051610a3791906111be565b60405180910390a36001905092915050565b6000600260008473ffffffffffffffffffffffffffffffffffffffff1673ffffffffffffffffffffffffffffffffffffffff16815260200190815260200160002060008373ffffffffffffffffffffffffffffffffffffffff1673ffffffffffffffffffffffffffffffffffffffff16815260200190815260200160002054905092915050565b600082821115610b09577f4e487b7100000000000000000000000000000000000000000000000000000000600052600160045260246000fd5b8183610b159190611266565b905092915050565b6000808284610b2c9190611210565b905083811015610b65577f4e487b7100000000000000000000000000000000000000000000000000000000600052600160045260246000fd5b8091505092915050565b600073ffffffffffffffffffffffffffffffffffffffff168273ffffffffffffffffffffffffffffffffffffffff161415610bdf576040517f08c379a0000000000000000000000000000000000000000000000000000000008152600401610bd69061119e565b60405180910390fd5b610bf481600354610b1d90919063ffffffff16565b600381905550610c4c81600160008573ffffffffffffffffffffffffffffffffffffffff1673ffffffffffffffffffffffffffffffffffffffff16815260200190815260200160002054610b1d90919063ffffffff16565b600160008473ffffffffffffffffffffffffffffffffffffffff1673ffffffffffffffffffffffffffffffffffffffff168152602001908152602001600020819055508173ffffffffffffffffffffffffffffffffffffffff16600073ffffffffffffffffffffffffffffffffffffffff167fddf252ad1be2c89b69c2b068fc378daa952ba7f163c4a11628f55a4df523b3ef83604051610ced91906111be565b60405180910390a35050565b600073ffffffffffffffffffffffffffffffffffffffff168273ffffffffffffffffffffffffffffffffffffffff161415610d69576040517f08c379a0000000000000000000000000000000000000000000000000000000008152600401610d609061117e565b60405180910390fd5b6000600160008473ffffffffffffffffffffffffffffffffffffffff1673ffffffffffffffffffffffffffffffffffffffff16815260200190815260200160002054905081811015610df0576040517f08c379a0000000000000000000000000000000000000000000000000000000008152600401610de79061113e565b60405180910390fd5b610e038282610ad090919063ffffffff16565b600160008573ffffffffffffffffffffffffffffffffffffffff1673ffffffffffffffffffffffffffffffffffffffff16815260200190815260200160002081905550610e5b82600354610ad090919063ffffffff16565b600381905550600073ffffffffffffffffffffffffffffffffffffffff168373ffffffffffffffffffffffffffffffffffffffff167fddf252ad1be2c89b69c2b068fc378daa952ba7f163c4a11628f55a4df523b3ef84604051610ebf91906111be565b60405180910390a3505050565b600081359050610edb81611452565b92915050565b600081359050610ef081611469565b92915050565b600060208284031215610f0857600080fd5b6000610f1684828501610ecc565b91505092915050565b60008060408385031215610f3257600080fd5b6000610f4085828601610ecc565b9250506020610f5185828601610ecc565b9150509250929050565b600080600060608486031215610f7057600080fd5b6000610f7e86828701610ecc565b9350506020610f8f86828701610ecc565b9250506040610fa086828701610ee1565b9150509250925092565b60008060408385031215610fbd57600080fd5b6000610fcb85828601610ecc565b9250506020610fdc85828601610ee1565b9150509250929050565b600060208284031215610ff857600080fd5b600061100684828501610ee1565b91505092915050565b611018816112ac565b82525050565b6000611029826111f4565b61103381856111ff565b93506110438185602086016112ef565b61104c81611351565b840191505092915050565b60006110646022836111ff565b915061106f82611362565b604082019050919050565b60006110876017836111ff565b9150611092826113b1565b602082019050919050565b60006110aa6021836111ff565b91506110b5826113da565b604082019050919050565b60006110cd601f836111ff565b91506110d882611429565b602082019050919050565b6110ec816112d8565b82525050565b6110fb816112e2565b82525050565b6000602082019050611116600083018461100f565b92915050565b60006020820190508181036000830152611136818461101e565b905092915050565b6000602082019050818103600083015261115781611057565b9050919050565b600060208201905081810360008301526111778161107a565b9050919050565b600060208201905081810360008301526111978161109d565b9050919050565b600060208201905081810360008301526111b7816110c0565b9050919050565b60006020820190506111d360008301846110e3565b92915050565b60006020820190506111ee60008301846110f2565b92915050565b600081519050919050565b600082825260208201905092915050565b600061121b826112d8565b9150611226836112d8565b9250827fffffffffffffffffffffffffffffffffffffffffffffffffffffffffffffffff0382111561125b5761125a611322565b5b828201905092915050565b6000611271826112d8565b915061127c836112d8565b92508282101561128f5761128e611322565b5b828203905092915050565b60006112a5826112b8565b9050919050565b60008115159050919050565b600073ffffffffffffffffffffffffffffffffffffffff82169050919050565b6000819050919050565b600060ff82169050919050565b60005b8381101561130d5780820151818401526020810190506112f2565b8381111561131c576000848401525b50505050565b7f4e487b7100000000000000000000000000000000000000000000000000000000600052601160045260246000fd5b6000601f19601f8301169050919050565b7f45524332303a206275726e20616d6f756e7420657863656564732062616c616e60008201527f6365000000000000000000000000000000000000000000000000000000000000602082015250565b7f43616c6c6572206973206e6f7420746865206f776e6572000000000000000000600082015250565b7f45524332303a206275726e2066726f6d20746865207a65726f2061646472657360008201527f7300000000000000000000000000000000000000000000000000000000000000602082015250565b7f45524332303a206d696e7420746f20746865207a65726f206164647265737300600082015250565b61145b8161129a565b811461146657600080fd5b50565b611472816112d8565b811461147d57600080fd5b5056fea2646970667358221220aab640872de53258c660f68a8ba086e58fc75761ce30b564171dcae60a98cdef64736f6c63430008010033",
  "immutableReferences": {},
  "source": "// SPDX-License-Identifier: MIT\n\npragma solidity ^0.8.0;\nimport \"./IERC20.sol\";\nimport \"./ERC20Basic.sol\";\n\ncontract DEX {\n    event Transfer(uint256 amount, bool bought, address _id);\n\n    address public _owner;\n    IERC20 public token;\n\n    constructor() {\n        _owner = msg.sender;\n        token = new ERC20Basic();\n    }\n\n    /**\n     * buy funtion does accept an amount in ETH\n     * and it mints the same amount of TKNs to the msg.sender\n     **/\n\n    function buy() public payable {\n        // TKN tokens are mitned 1:1 with ETH. Will change it later\n        uint256 amountTobuy = msg.value;\n\n        require(amountTobuy > 0, \"You need to send some Ether\");\n\n        token.mint(msg.sender, amountTobuy);\n        emit Transfer(amountTobuy, true, msg.sender);\n    }\n\n    /**\n     * sell funtion does accept an amount of TKNs\n     * and then transfers the same amount of ETH to the msg.sender\n     * After the successful trade it burns the TKNs\n     **/\n\n    function sell(uint256 amount) public {\n        require(amount > 0, \"You need to sell at least some tokens\");\n        uint256 allowance = token.allowance(msg.sender, address(this));\n        require(allowance >= amount, \"Check the token allowance\");\n\n        token.transferFrom(msg.sender, address(this), amount);\n        payable(msg.sender).transfer(amount);\n\n        token.burn(amount);\n        emit Transfer(amount, false, msg.sender);\n    }\n}\n",
  "sourcePath": "/home/zeus/Desktop/Projects/Blockchain/ERC_20_DEX/contracts/DEX.sol",
  "compiler": {
    "name": "solc",
    "version": "0.8.1+commit.df193b15.Emscripten.clang"
  },
  "schemaVersion": "3.4.0",
  "updatedAt": "2021-05-04T19:35:01.321Z",
  "networkType": "ethereum",
  "devdoc": {
    "kind": "dev",
    "methods": {},
    "version": 1
  },
  "userdoc": {
    "kind": "user",
    "methods": {
      "buy()": {
        "notice": "buy funtion does accept an amount in ETH and it mints the same amount of TKNs to the msg.sender*"
      },
      "sell(uint256)": {
        "notice": "sell funtion does accept an amount of TKNs and then transfers the same amount of ETH to the msg.sender After the successful trade it burns the TKNs*"
      }
    },
    "version": 1
  }
}