{
  "contractName": "ERC20Basic",
  "abi": [
    {
      "inputs": [],
      "stateMutability": "nonpayable",
      "type": "constructor"
    },
    {
      "anonymous": false,
      "inputs": [
        {
          "indexed": true,
          "internalType": "address",
          "name": "tokenOwner",
          "type": "address"
        },
        {
          "indexed": true,
          "internalType": "address",
          "name": "spender",
          "type": "address"
        },
        {
          "indexed": false,
          "internalType": "uint256",
          "name": "tokens",
          "type": "uint256"
        }
      ],
      "name": "Approval",
      "type": "event"
    },
    {
      "anonymous": false,
      "inputs": [
        {
          "indexed": true,
          "internalType": "address",
          "name": "from",
          "type": "address"
        },
        {
          "indexed": true,
          "internalType": "address",
          "name": "to",
          "type": "address"
        },
        {
          "indexed": false,
          "internalType": "uint256",
          "name": "tokens",
          "type": "uint256"
        }
      ],
      "name": "Transfer",
      "type": "event"
    },
    {
      "inputs": [],
      "name": "_totalSupply",
      "outputs": [
        {
          "internalType": "uint256",
          "name": "",
          "type": "uint256"
        }
      ],
      "stateMutability": "view",
      "type": "function"
    },
    {
      "inputs": [],
      "name": "decimals",
      "outputs": [
        {
          "internalType": "uint8",
          "name": "",
          "type": "uint8"
        }
      ],
      "stateMutability": "view",
      "type": "function"
    },
    {
      "inputs": [],
      "name": "name",
      "outputs": [
        {
          "internalType": "string",
          "name": "",
          "type": "string"
        }
      ],
      "stateMutability": "view",
      "type": "function"
    },
    {
      "inputs": [],
      "name": "symbol",
      "outputs": [
        {
          "internalType": "string",
          "name": "",
          "type": "string"
        }
      ],
      "stateMutability": "view",
      "type": "function"
    },
    {
      "inputs": [],
      "name": "totalSupply",
      "outputs": [
        {
          "internalType": "uint256",
          "name": "",
          "type": "uint256"
        }
      ],
      "stateMutability": "view",
      "type": "function"
    },
    {
      "inputs": [
        {
          "internalType": "address",
          "name": "tokenOwner",
          "type": "address"
        }
      ],
      "name": "balanceOf",
      "outputs": [
        {
          "internalType": "uint256",
          "name": "",
          "type": "uint256"
        }
      ],
      "stateMutability": "view",
      "type": "function"
    },
    {
      "inputs": [
        {
          "internalType": "address",
          "name": "receiver",
          "type": "address"
        },
        {
          "internalType": "uint256",
          "name": "numTokens",
          "type": "uint256"
        }
      ],
      "name": "transfer",
      "outputs": [
        {
          "internalType": "bool",
          "name": "",
          "type": "bool"
        }
      ],
      "stateMutability": "nonpayable",
      "type": "function"
    },
    {
      "inputs": [
        {
          "internalType": "address",
          "name": "delegate",
          "type": "address"
        },
        {
          "internalType": "uint256",
          "name": "numTokens",
          "type": "uint256"
        }
      ],
      "name": "approve",
      "outputs": [
        {
          "internalType": "bool",
          "name": "",
          "type": "bool"
        }
      ],
      "stateMutability": "nonpayable",
      "type": "function"
    },
    {
      "inputs": [
        {
          "internalType": "address",
          "name": "owner",
          "type": "address"
        },
        {
          "internalType": "address",
          "name": "delegate",
          "type": "address"
        }
      ],
      "name": "allowance",
      "outputs": [
        {
          "internalType": "uint256",
          "name": "",
          "type": "uint256"
        }
      ],
      "stateMutability": "view",
      "type": "function"
    },
    {
      "inputs": [
        {
          "internalType": "address",
          "name": "owner",
          "type": "address"
        },
        {
          "internalType": "address",
          "name": "buyer",
          "type": "address"
        },
        {
          "internalType": "uint256",
          "name": "numTokens",
          "type": "uint256"
        }
      ],
      "name": "transferFrom",
      "outputs": [
        {
          "internalType": "bool",
          "name": "",
          "type": "bool"
        }
      ],
      "stateMutability": "nonpayable",
      "type": "function"
    },
    {
      "inputs": [
        {
          "internalType": "address",
          "name": "to",
          "type": "address"
        },
        {
          "internalType": "uint256",
          "name": "amount",
          "type": "uint256"
        }
      ],
      "name": "mint",
      "outputs": [],
      "stateMutability": "nonpayable",
      "type": "function"
    },
    {
      "inputs": [
        {
          "internalType": "uint256",
          "name": "amount",
          "type": "uint256"
        }
      ],
      "name": "burn",
      "outputs": [],
      "stateMutability": "nonpayable",
      "type": "function"
    }
  ],
  "bytecode": "0x6080604052600060035534801561001557600080fd5b50336000806101000a81548173ffffffffffffffffffffffffffffffffffffffff021916908373ffffffffffffffffffffffffffffffffffffffff16021790555061158f806100656000396000f3fe608060405234801561001057600080fd5b50600436106100b45760003560e01c806340c10f191161007157806340c10f191461019157806342966c68146101ad57806370a08231146101c957806395d89b41146101f9578063a9059cbb14610217578063dd62ed3e14610247576100b4565b806306fdde03146100b9578063095ea7b3146100d757806318160ddd1461010757806323b872dd14610125578063313ce567146101555780633eaaf86b14610173575b600080fd5b6100c1610277565b6040516100ce91906111ac565b60405180910390f35b6100f160048036038101906100ec9190611017565b6102b0565b6040516100fe9190611191565b60405180910390f35b61010f6103a2565b60405161011c919061126e565b60405180910390f35b61013f600480360381019061013a9190610fc8565b6103ac565b60405161014c9190611191565b60405180910390f35b61015d61072c565b60405161016a9190611289565b60405180910390f35b61017b610731565b604051610188919061126e565b60405180910390f35b6101ab60048036038101906101a69190611017565b610737565b005b6101c760048036038101906101c29190611053565b6107d3565b005b6101e360048036038101906101de9190610f63565b6107e0565b6040516101f0919061126e565b60405180910390f35b610201610829565b60405161020e91906111ac565b60405180910390f35b610231600480360381019061022c9190611017565b610862565b60405161023e9190611191565b60405180910390f35b610261600480360381019061025c9190610f8c565b610a49565b60405161026e919061126e565b60405180910390f35b6040518060400160405280600e81526020017f45524332305f457874656e64656400000000000000000000000000000000000081525081565b600081600260003373ffffffffffffffffffffffffffffffffffffffff1673ffffffffffffffffffffffffffffffffffffffff16815260200190815260200160002060008573ffffffffffffffffffffffffffffffffffffffff1673ffffffffffffffffffffffffffffffffffffffff168152602001908152602001600020819055508273ffffffffffffffffffffffffffffffffffffffff163373ffffffffffffffffffffffffffffffffffffffff167f8c5be1e5ebec7d5bd14f71427d1e84f3dd0314c0f7b2291e5b200ac8c7c3b92584604051610390919061126e565b60405180910390a36001905092915050565b6000600354905090565b6000600160008573ffffffffffffffffffffffffffffffffffffffff1673ffffffffffffffffffffffffffffffffffffffff168152602001908152602001600020548211156103fa57600080fd5b600260008573ffffffffffffffffffffffffffffffffffffffff1673ffffffffffffffffffffffffffffffffffffffff16815260200190815260200160002060003373ffffffffffffffffffffffffffffffffffffffff1673ffffffffffffffffffffffffffffffffffffffff1681526020019081526020016000205482111561048357600080fd5b6104d582600160008773ffffffffffffffffffffffffffffffffffffffff1673ffffffffffffffffffffffffffffffffffffffff16815260200190815260200160002054610ad090919063ffffffff16565b600160008673ffffffffffffffffffffffffffffffffffffffff1673ffffffffffffffffffffffffffffffffffffffff168152602001908152602001600020819055506105a782600260008773ffffffffffffffffffffffffffffffffffffffff1673ffffffffffffffffffffffffffffffffffffffff16815260200190815260200160002060003373ffffffffffffffffffffffffffffffffffffffff1673ffffffffffffffffffffffffffffffffffffffff16815260200190815260200160002054610ad090919063ffffffff16565b600260008673ffffffffffffffffffffffffffffffffffffffff1673ffffffffffffffffffffffffffffffffffffffff16815260200190815260200160002060003373ffffffffffffffffffffffffffffffffffffffff1673ffffffffffffffffffffffffffffffffffffffff1681526020019081526020016000208190555061067982600160008673ffffffffffffffffffffffffffffffffffffffff1673ffffffffffffffffffffffffffffffffffffffff16815260200190815260200160002054610b1a90919063ffffffff16565b600160008573ffffffffffffffffffffffffffffffffffffffff1673ffffffffffffffffffffffffffffffffffffffff168152602001908152602001600020819055508273ffffffffffffffffffffffffffffffffffffffff168473ffffffffffffffffffffffffffffffffffffffff167fddf252ad1be2c89b69c2b068fc378daa952ba7f163c4a11628f55a4df523b3ef84604051610719919061126e565b60405180910390a3600190509392505050565b601281565b60035481565b3373ffffffffffffffffffffffffffffffffffffffff1660008054906101000a900473ffffffffffffffffffffffffffffffffffffffff1673ffffffffffffffffffffffffffffffffffffffff16146107c5576040517f08c379a00000000000000000000000000000000000000000000000000000000081526004016107bc906111ee565b60405180910390fd5b6107cf8282610b78565b5050565b6107dd3382610d02565b50565b6000600160008373ffffffffffffffffffffffffffffffffffffffff1673ffffffffffffffffffffffffffffffffffffffff168152602001908152602001600020549050919050565b6040518060400160405280600381526020017f544b4e000000000000000000000000000000000000000000000000000000000081525081565b6000600160003373ffffffffffffffffffffffffffffffffffffffff1673ffffffffffffffffffffffffffffffffffffffff168152602001908152602001600020548211156108b057600080fd5b61090282600160003373ffffffffffffffffffffffffffffffffffffffff1673ffffffffffffffffffffffffffffffffffffffff16815260200190815260200160002054610ad090919063ffffffff16565b600160003373ffffffffffffffffffffffffffffffffffffffff1673ffffffffffffffffffffffffffffffffffffffff1681526020019081526020016000208190555061099782600160008673ffffffffffffffffffffffffffffffffffffffff1673ffffffffffffffffffffffffffffffffffffffff16815260200190815260200160002054610b1a90919063ffffffff16565b600160008573ffffffffffffffffffffffffffffffffffffffff1673ffffffffffffffffffffffffffffffffffffffff168152602001908152602001600020819055508273ffffffffffffffffffffffffffffffffffffffff163373ffffffffffffffffffffffffffffffffffffffff167fddf252ad1be2c89b69c2b068fc378daa952ba7f163c4a11628f55a4df523b3ef84604051610a37919061126e565b60405180910390a36001905092915050565b6000600260008473ffffffffffffffffffffffffffffffffffffffff1673ffffffffffffffffffffffffffffffffffffffff16815260200190815260200160002060008373ffffffffffffffffffffffffffffffffffffffff1673ffffffffffffffffffffffffffffffffffffffff16815260200190815260200160002054905092915050565b6000610b1283836040518060400160405280601e81526020017f536166654d6174683a207375627472616374696f6e206f766572666c6f770000815250610ed5565b905092915050565b6000808284610b2991906112c0565b905083811015610b6e576040517f08c379a0000000000000000000000000000000000000000000000000000000008152600401610b659061120e565b60405180910390fd5b8091505092915050565b600073ffffffffffffffffffffffffffffffffffffffff168273ffffffffffffffffffffffffffffffffffffffff161415610be8576040517f08c379a0000000000000000000000000000000000000000000000000000000008152600401610bdf9061124e565b60405180910390fd5b610bfd81600354610b1a90919063ffffffff16565b600381905550610c5581600160008573ffffffffffffffffffffffffffffffffffffffff1673ffffffffffffffffffffffffffffffffffffffff16815260200190815260200160002054610b1a90919063ffffffff16565b600160008473ffffffffffffffffffffffffffffffffffffffff1673ffffffffffffffffffffffffffffffffffffffff168152602001908152602001600020819055508173ffffffffffffffffffffffffffffffffffffffff16600073ffffffffffffffffffffffffffffffffffffffff167fddf252ad1be2c89b69c2b068fc378daa952ba7f163c4a11628f55a4df523b3ef83604051610cf6919061126e565b60405180910390a35050565b600073ffffffffffffffffffffffffffffffffffffffff168273ffffffffffffffffffffffffffffffffffffffff161415610d72576040517f08c379a0000000000000000000000000000000000000000000000000000000008152600401610d699061122e565b60405180910390fd5b6000600160008473ffffffffffffffffffffffffffffffffffffffff1673ffffffffffffffffffffffffffffffffffffffff16815260200190815260200160002054905081811015610df9576040517f08c379a0000000000000000000000000000000000000000000000000000000008152600401610df0906111ce565b60405180910390fd5b610e0c8282610ad090919063ffffffff16565b600160008573ffffffffffffffffffffffffffffffffffffffff1673ffffffffffffffffffffffffffffffffffffffff16815260200190815260200160002081905550610e6482600354610ad090919063ffffffff16565b600381905550600073ffffffffffffffffffffffffffffffffffffffff168373ffffffffffffffffffffffffffffffffffffffff167fddf252ad1be2c89b69c2b068fc378daa952ba7f163c4a11628f55a4df523b3ef84604051610ec8919061126e565b60405180910390a3505050565b6000838311158290610f1d576040517f08c379a0000000000000000000000000000000000000000000000000000000008152600401610f1491906111ac565b60405180910390fd5b5060008385610f2c9190611316565b9050809150509392505050565b600081359050610f488161152b565b92915050565b600081359050610f5d81611542565b92915050565b600060208284031215610f7557600080fd5b6000610f8384828501610f39565b91505092915050565b60008060408385031215610f9f57600080fd5b6000610fad85828601610f39565b9250506020610fbe85828601610f39565b9150509250929050565b600080600060608486031215610fdd57600080fd5b6000610feb86828701610f39565b9350506020610ffc86828701610f39565b925050604061100d86828701610f4e565b9150509250925092565b6000806040838503121561102a57600080fd5b600061103885828601610f39565b925050602061104985828601610f4e565b9150509250929050565b60006020828403121561106557600080fd5b600061107384828501610f4e565b91505092915050565b6110858161135c565b82525050565b6000611096826112a4565b6110a081856112af565b93506110b081856020860161139f565b6110b981611401565b840191505092915050565b60006110d16022836112af565b91506110dc82611412565b604082019050919050565b60006110f46017836112af565b91506110ff82611461565b602082019050919050565b6000611117601b836112af565b91506111228261148a565b602082019050919050565b600061113a6021836112af565b9150611145826114b3565b604082019050919050565b600061115d601f836112af565b915061116882611502565b602082019050919050565b61117c81611388565b82525050565b61118b81611392565b82525050565b60006020820190506111a6600083018461107c565b92915050565b600060208201905081810360008301526111c6818461108b565b905092915050565b600060208201905081810360008301526111e7816110c4565b9050919050565b60006020820190508181036000830152611207816110e7565b9050919050565b600060208201905081810360008301526112278161110a565b9050919050565b600060208201905081810360008301526112478161112d565b9050919050565b6000602082019050818103600083015261126781611150565b9050919050565b60006020820190506112836000830184611173565b92915050565b600060208201905061129e6000830184611182565b92915050565b600081519050919050565b600082825260208201905092915050565b60006112cb82611388565b91506112d683611388565b9250827fffffffffffffffffffffffffffffffffffffffffffffffffffffffffffffffff0382111561130b5761130a6113d2565b5b828201905092915050565b600061132182611388565b915061132c83611388565b92508282101561133f5761133e6113d2565b5b828203905092915050565b600061135582611368565b9050919050565b60008115159050919050565b600073ffffffffffffffffffffffffffffffffffffffff82169050919050565b6000819050919050565b600060ff82169050919050565b60005b838110156113bd5780820151818401526020810190506113a2565b838111156113cc576000848401525b50505050565b7f4e487b7100000000000000000000000000000000000000000000000000000000600052601160045260246000fd5b6000601f19601f8301169050919050565b7f45524332303a206275726e20616d6f756e7420657863656564732062616c616e60008201527f6365000000000000000000000000000000000000000000000000000000000000602082015250565b7f43616c6c6572206973206e6f7420746865206f776e6572000000000000000000600082015250565b7f536166654d6174683a206164646974696f6e206f766572666c6f770000000000600082015250565b7f45524332303a206275726e2066726f6d20746865207a65726f2061646472657360008201527f7300000000000000000000000000000000000000000000000000000000000000602082015250565b7f45524332303a206d696e7420746f20746865207a65726f206164647265737300600082015250565b6115348161134a565b811461153f57600080fd5b50565b61154b81611388565b811461155657600080fd5b5056fea264697066735822122087d44cd79a26644528273c7085de102915d176acebd955b112af6a0c397ae01364736f6c63430008010033",
  "immutableReferences": {},
  "source": "// SPDX-License-Identifier: MIT\n\npragma solidity ^0.8.0;\n\nimport \"./safemath.sol\";\nimport \"./IERC20.sol\";\n\ncontract ERC20Basic is IERC20 {\n    string public constant name = \"ERC20_Extended\";\n    string public constant symbol = \"TKN\";\n    uint8 public constant decimals = 18;\n\n    event Approval(\n        address indexed tokenOwner,\n        address indexed spender,\n        uint256 tokens\n    );\n    event Transfer(address indexed from, address indexed to, uint256 tokens);\n\n    address private _owner;\n    mapping(address => uint256) private _balances;\n\n    mapping(address => mapping(address => uint256)) private _allowances;\n\n    uint256 public _totalSupply = 0;\n\n    using SafeMath for uint256;\n\n    constructor() {\n        _owner = msg.sender;\n    }\n\n    function totalSupply() public view override returns (uint256) {\n        return _totalSupply;\n    }\n\n    function balanceOf(address tokenOwner)\n        public\n        view\n        override\n        returns (uint256)\n    {\n        return _balances[tokenOwner];\n    }\n\n    function transfer(address receiver, uint256 numTokens)\n        public\n        override\n        returns (bool)\n    {\n        require(numTokens <= _balances[msg.sender]);\n        _balances[msg.sender] = _balances[msg.sender].sub(numTokens);\n        _balances[receiver] = _balances[receiver].add(numTokens);\n        emit Transfer(msg.sender, receiver, numTokens);\n        return true;\n    }\n\n    function approve(address delegate, uint256 numTokens)\n        public\n        override\n        returns (bool)\n    {\n        _allowances[msg.sender][delegate] = numTokens;\n        emit Approval(msg.sender, delegate, numTokens);\n        return true;\n    }\n\n    function allowance(address owner, address delegate)\n        public\n        view\n        override\n        returns (uint256)\n    {\n        return _allowances[owner][delegate];\n    }\n\n    function transferFrom(\n        address owner,\n        address buyer,\n        uint256 numTokens\n    ) public override returns (bool) {\n        require(numTokens <= _balances[owner]);\n        require(numTokens <= _allowances[owner][msg.sender]);\n\n        _balances[owner] = _balances[owner].sub(numTokens);\n        _allowances[owner][msg.sender] = _allowances[owner][msg.sender].sub(\n            numTokens\n        );\n        _balances[buyer] = _balances[buyer].add(numTokens);\n        emit Transfer(owner, buyer, numTokens);\n        return true;\n    }\n\n    function mint(address to, uint256 amount) public override {\n        require(_owner == msg.sender, \"Caller is not the owner\");\n        _mint(to, amount);\n    }\n\n    function _mint(address account, uint256 amount) internal {\n        require(account != address(0), \"ERC20: mint to the zero address\");\n\n        _totalSupply = _totalSupply.add(amount);\n        _balances[account] = _balances[account].add(amount);\n        emit Transfer(address(0), account, amount);\n    }\n\n    function burn(uint256 amount) public override {\n        _burn(msg.sender, amount);\n    }\n\n    function _burn(address account, uint256 amount) internal {\n        require(account != address(0), \"ERC20: burn from the zero address\");\n\n        uint256 accountBalance = _balances[account];\n        require(accountBalance >= amount, \"ERC20: burn amount exceeds balance\");\n        _balances[account] = accountBalance.sub(amount);\n        _totalSupply = _totalSupply.sub(amount);\n\n        emit Transfer(account, address(0), amount);\n    }\n}\n",
  "sourcePath": "/home/saeed/Desktop/ERC_20_DEX/contracts/ERC20Basic.sol",
  "compiler": {
    "name": "solc",
    "version": "0.8.1+commit.df193b15.Emscripten.clang"
  },
  "schemaVersion": "3.3.4",
  "updatedAt": "2021-05-06T20:40:17.169Z",
  "devdoc": {
    "kind": "dev",
    "methods": {},
    "version": 1
  },
  "userdoc": {
    "kind": "user",
    "methods": {},
    "version": 1
  }
}